{
  "_format": "hh-sol-artifact-1",
  "contractName": "NFTCollection",
  "sourceName": "contracts/createNFT.sol",
  "abi": [
    {
      "inputs": [],
      "stateMutability": "nonpayable",
      "type": "constructor"
    },
    {
      "anonymous": false,
      "inputs": [
        {
          "indexed": true,
          "internalType": "address",
          "name": "owner",
          "type": "address"
        },
        {
          "indexed": true,
          "internalType": "address",
          "name": "approved",
          "type": "address"
        },
        {
          "indexed": true,
          "internalType": "uint256",
          "name": "tokenId",
          "type": "uint256"
        }
      ],
      "name": "Approval",
      "type": "event"
    },
    {
      "anonymous": false,
      "inputs": [
        {
          "indexed": true,
          "internalType": "address",
          "name": "owner",
          "type": "address"
        },
        {
          "indexed": true,
          "internalType": "address",
          "name": "operator",
          "type": "address"
        },
        {
          "indexed": false,
          "internalType": "bool",
          "name": "approved",
          "type": "bool"
        }
      ],
      "name": "ApprovalForAll",
      "type": "event"
    },
    {
      "anonymous": false,
      "inputs": [
        {
          "indexed": true,
          "internalType": "address",
          "name": "previousOwner",
          "type": "address"
        },
        {
          "indexed": true,
          "internalType": "address",
          "name": "newOwner",
          "type": "address"
        }
      ],
      "name": "OwnershipTransferred",
      "type": "event"
    },
    {
      "anonymous": false,
      "inputs": [
        {
          "indexed": true,
          "internalType": "address",
          "name": "from",
          "type": "address"
        },
        {
          "indexed": true,
          "internalType": "address",
          "name": "to",
          "type": "address"
        },
        {
          "indexed": true,
          "internalType": "uint256",
          "name": "tokenId",
          "type": "uint256"
        }
      ],
      "name": "Transfer",
      "type": "event"
    },
    {
      "inputs": [
        {
          "internalType": "address",
          "name": "to",
          "type": "address"
        },
        {
          "internalType": "uint256",
          "name": "tokenId",
          "type": "uint256"
        }
      ],
      "name": "approve",
      "outputs": [],
      "stateMutability": "nonpayable",
      "type": "function"
    },
    {
      "inputs": [
        {
          "internalType": "address",
          "name": "owner",
          "type": "address"
        }
      ],
      "name": "balanceOf",
      "outputs": [
        {
          "internalType": "uint256",
          "name": "",
          "type": "uint256"
        }
      ],
      "stateMutability": "view",
      "type": "function"
    },
    {
      "inputs": [
        {
          "internalType": "address",
          "name": "receiver",
          "type": "address"
        },
        {
          "internalType": "string",
          "name": "tokenURI",
          "type": "string"
        }
      ],
      "name": "createNFT",
      "outputs": [
        {
          "internalType": "uint256",
          "name": "",
          "type": "uint256"
        }
      ],
      "stateMutability": "nonpayable",
      "type": "function"
    },
    {
      "inputs": [
        {
          "internalType": "uint256",
          "name": "tokenId",
          "type": "uint256"
        }
      ],
      "name": "getApproved",
      "outputs": [
        {
          "internalType": "address",
          "name": "",
          "type": "address"
        }
      ],
      "stateMutability": "view",
      "type": "function"
    },
    {
      "inputs": [
        {
          "internalType": "address",
          "name": "owner",
          "type": "address"
        },
        {
          "internalType": "address",
          "name": "operator",
          "type": "address"
        }
      ],
      "name": "isApprovedForAll",
      "outputs": [
        {
          "internalType": "bool",
          "name": "",
          "type": "bool"
        }
      ],
      "stateMutability": "view",
      "type": "function"
    },
    {
      "inputs": [],
      "name": "name",
      "outputs": [
        {
          "internalType": "string",
          "name": "",
          "type": "string"
        }
      ],
      "stateMutability": "view",
      "type": "function"
    },
    {
      "inputs": [],
      "name": "owner",
      "outputs": [
        {
          "internalType": "address",
          "name": "",
          "type": "address"
        }
      ],
      "stateMutability": "view",
      "type": "function"
    },
    {
      "inputs": [
        {
          "internalType": "uint256",
          "name": "tokenId",
          "type": "uint256"
        }
      ],
      "name": "ownerOf",
      "outputs": [
        {
          "internalType": "address",
          "name": "",
          "type": "address"
        }
      ],
      "stateMutability": "view",
      "type": "function"
    },
    {
      "inputs": [],
      "name": "renounceOwnership",
      "outputs": [],
      "stateMutability": "nonpayable",
      "type": "function"
    },
    {
      "inputs": [
        {
          "internalType": "address",
          "name": "from",
          "type": "address"
        },
        {
          "internalType": "address",
          "name": "to",
          "type": "address"
        },
        {
          "internalType": "uint256",
          "name": "tokenId",
          "type": "uint256"
        }
      ],
      "name": "safeTransferFrom",
      "outputs": [],
      "stateMutability": "nonpayable",
      "type": "function"
    },
    {
      "inputs": [
        {
          "internalType": "address",
          "name": "from",
          "type": "address"
        },
        {
          "internalType": "address",
          "name": "to",
          "type": "address"
        },
        {
          "internalType": "uint256",
          "name": "tokenId",
          "type": "uint256"
        },
        {
          "internalType": "bytes",
          "name": "_data",
          "type": "bytes"
        }
      ],
      "name": "safeTransferFrom",
      "outputs": [],
      "stateMutability": "nonpayable",
      "type": "function"
    },
    {
      "inputs": [
        {
          "internalType": "address",
          "name": "operator",
          "type": "address"
        },
        {
          "internalType": "bool",
          "name": "approved",
          "type": "bool"
        }
      ],
      "name": "setApprovalForAll",
      "outputs": [],
      "stateMutability": "nonpayable",
      "type": "function"
    },
    {
      "inputs": [
        {
          "internalType": "bytes4",
          "name": "interfaceId",
          "type": "bytes4"
        }
      ],
      "name": "supportsInterface",
      "outputs": [
        {
          "internalType": "bool",
          "name": "",
          "type": "bool"
        }
      ],
      "stateMutability": "view",
      "type": "function"
    },
    {
      "inputs": [],
      "name": "symbol",
      "outputs": [
        {
          "internalType": "string",
          "name": "",
          "type": "string"
        }
      ],
      "stateMutability": "view",
      "type": "function"
    },
    {
      "inputs": [
        {
          "internalType": "uint256",
          "name": "tokenId",
          "type": "uint256"
        }
      ],
      "name": "tokenURI",
      "outputs": [
        {
          "internalType": "string",
          "name": "",
          "type": "string"
        }
      ],
      "stateMutability": "view",
      "type": "function"
    },
    {
      "inputs": [
        {
          "internalType": "address",
          "name": "from",
          "type": "address"
        },
        {
          "internalType": "address",
          "name": "to",
          "type": "address"
        },
        {
          "internalType": "uint256",
          "name": "tokenId",
          "type": "uint256"
        }
      ],
      "name": "transferFrom",
      "outputs": [],
      "stateMutability": "nonpayable",
      "type": "function"
    },
    {
      "inputs": [
        {
          "internalType": "address",
          "name": "newOwner",
          "type": "address"
        }
      ],
      "name": "transferOwnership",
      "outputs": [],
      "stateMutability": "nonpayable",
      "type": "function"
    }
  ],
  "bytecode": "0x60806040523480156200001157600080fd5b506040518060400160405280600881526020017f546f7276616c64730000000000000000000000000000000000000000000000008152506040518060400160405280600881526020017f546f7276616c647300000000000000000000000000000000000000000000000081525081600090805190602001906200009692919062000171565b508060019080519060200190620000af92919062000171565b5050506000620000c46200016960201b60201c565b905080600660006101000a81548173ffffffffffffffffffffffffffffffffffffffff021916908373ffffffffffffffffffffffffffffffffffffffff1602179055508073ffffffffffffffffffffffffffffffffffffffff16600073ffffffffffffffffffffffffffffffffffffffff167f8be0079c531659141344cd1fd0a4f28419497f9722a3daafe3b4186f6b6457e060405160405180910390a35062000286565b600033905090565b8280546200017f9062000221565b90600052602060002090601f016020900481019282620001a35760008555620001ef565b82601f10620001be57805160ff1916838001178555620001ef565b82800160010185558215620001ef579182015b82811115620001ee578251825591602001919060010190620001d1565b5b509050620001fe919062000202565b5090565b5b808211156200021d57600081600090555060010162000203565b5090565b600060028204905060018216806200023a57607f821691505b6020821081141562000251576200025062000257565b5b50919050565b7f4e487b7100000000000000000000000000000000000000000000000000000000600052602260045260246000fd5b612d8780620002966000396000f3fe608060405234801561001057600080fd5b506004361061010b5760003560e01c8063715018a6116100a2578063a561403311610071578063a5614033146102a4578063b88d4fde146102d4578063c87b56dd146102f0578063e985e9c514610320578063f2fde38b146103505761010b565b8063715018a6146102425780638da5cb5b1461024c57806395d89b411461026a578063a22cb465146102885761010b565b806323b872dd116100de57806323b872dd146101aa57806342842e0e146101c65780636352211e146101e257806370a08231146102125761010b565b806301ffc9a71461011057806306fdde0314610140578063081812fc1461015e578063095ea7b31461018e575b600080fd5b61012a60048036038101906101259190611ebb565b61036c565b60405161013791906126bf565b60405180910390f35b61014861044e565b60405161015591906126da565b60405180910390f35b61017860048036038101906101739190611f0d565b6104e0565b6040516101859190612658565b60405180910390f35b6101a860048036038101906101a39190611e7f565b610565565b005b6101c460048036038101906101bf9190611d25565b61067d565b005b6101e060048036038101906101db9190611d25565b6106dd565b005b6101fc60048036038101906101f79190611f0d565b6106fd565b6040516102099190612658565b60405180910390f35b61022c60048036038101906102279190611cc0565b6107af565b604051610239919061291c565b60405180910390f35b61024a610867565b005b6102546109a4565b6040516102619190612658565b60405180910390f35b6102726109ce565b60405161027f91906126da565b60405180910390f35b6102a2600480360381019061029d9190611def565b610a60565b005b6102be60048036038101906102b99190611e2b565b610be1565b6040516102cb919061291c565b60405180910390f35b6102ee60048036038101906102e99190611d74565b610c95565b005b61030a60048036038101906103059190611f0d565b610cf7565b60405161031791906126da565b60405180910390f35b61033a60048036038101906103359190611ce9565b610d9e565b60405161034791906126bf565b60405180910390f35b61036a60048036038101906103659190611cc0565b610e32565b005b60007f80ac58cd000000000000000000000000000000000000000000000000000000007bffffffffffffffffffffffffffffffffffffffffffffffffffffffff1916827bffffffffffffffffffffffffffffffffffffffffffffffffffffffff1916148061043757507f5b5e139f000000000000000000000000000000000000000000000000000000007bffffffffffffffffffffffffffffffffffffffffffffffffffffffff1916827bffffffffffffffffffffffffffffffffffffffffffffffffffffffff1916145b80610447575061044682610fde565b5b9050919050565b60606000805461045d90612b7c565b80601f016020809104026020016040519081016040528092919081815260200182805461048990612b7c565b80156104d65780601f106104ab576101008083540402835291602001916104d6565b820191906000526020600020905b8154815290600101906020018083116104b957829003601f168201915b5050505050905090565b60006104eb82611048565b61052a576040517f08c379a00000000000000000000000000000000000000000000000000000000081526004016105219061283c565b60405180910390fd5b6004600083815260200190815260200160002060009054906101000a900473ffffffffffffffffffffffffffffffffffffffff169050919050565b6000610570826106fd565b90508073ffffffffffffffffffffffffffffffffffffffff168373ffffffffffffffffffffffffffffffffffffffff1614156105e1576040517f08c379a00000000000000000000000000000000000000000000000000000000081526004016105d8906128dc565b60405180910390fd5b8073ffffffffffffffffffffffffffffffffffffffff166106006110b4565b73ffffffffffffffffffffffffffffffffffffffff16148061062f575061062e816106296110b4565b610d9e565b5b61066e576040517f08c379a0000000000000000000000000000000000000000000000000000000008152600401610665906127bc565b60405180910390fd5b61067883836110bc565b505050565b61068e6106886110b4565b82611175565b6106cd576040517f08c379a00000000000000000000000000000000000000000000000000000000081526004016106c4906128fc565b60405180910390fd5b6106d8838383611253565b505050565b6106f883838360405180602001604052806000815250610c95565b505050565b6000806002600084815260200190815260200160002060009054906101000a900473ffffffffffffffffffffffffffffffffffffffff169050600073ffffffffffffffffffffffffffffffffffffffff168173ffffffffffffffffffffffffffffffffffffffff1614156107a6576040517f08c379a000000000000000000000000000000000000000000000000000000000815260040161079d906127fc565b60405180910390fd5b80915050919050565b60008073ffffffffffffffffffffffffffffffffffffffff168273ffffffffffffffffffffffffffffffffffffffff161415610820576040517f08c379a0000000000000000000000000000000000000000000000000000000008152600401610817906127dc565b60405180910390fd5b600360008373ffffffffffffffffffffffffffffffffffffffff1673ffffffffffffffffffffffffffffffffffffffff168152602001908152602001600020549050919050565b61086f6110b4565b73ffffffffffffffffffffffffffffffffffffffff1661088d6109a4565b73ffffffffffffffffffffffffffffffffffffffff16146108e3576040517f08c379a00000000000000000000000000000000000000000000000000000000081526004016108da9061287c565b60405180910390fd5b600073ffffffffffffffffffffffffffffffffffffffff16600660009054906101000a900473ffffffffffffffffffffffffffffffffffffffff1673ffffffffffffffffffffffffffffffffffffffff167f8be0079c531659141344cd1fd0a4f28419497f9722a3daafe3b4186f6b6457e060405160405180910390a36000600660006101000a81548173ffffffffffffffffffffffffffffffffffffffff021916908373ffffffffffffffffffffffffffffffffffffffff160217905550565b6000600660009054906101000a900473ffffffffffffffffffffffffffffffffffffffff16905090565b6060600180546109dd90612b7c565b80601f0160208091040260200160405190810160405280929190818152602001828054610a0990612b7c565b8015610a565780601f10610a2b57610100808354040283529160200191610a56565b820191906000526020600020905b815481529060010190602001808311610a3957829003601f168201915b5050505050905090565b610a686110b4565b73ffffffffffffffffffffffffffffffffffffffff168273ffffffffffffffffffffffffffffffffffffffff161415610ad6576040517f08c379a0000000000000000000000000000000000000000000000000000000008152600401610acd9061277c565b60405180910390fd5b8060056000610ae36110b4565b73ffffffffffffffffffffffffffffffffffffffff1673ffffffffffffffffffffffffffffffffffffffff16815260200190815260200160002060008473ffffffffffffffffffffffffffffffffffffffff1673ffffffffffffffffffffffffffffffffffffffff16815260200190815260200160002060006101000a81548160ff0219169083151502179055508173ffffffffffffffffffffffffffffffffffffffff16610b906110b4565b73ffffffffffffffffffffffffffffffffffffffff167f17307eab39ab6107e8899845ad3d59bd9653f200f220920489ca2b5937696c3183604051610bd591906126bf565b60405180910390a35050565b6000610beb6110b4565b73ffffffffffffffffffffffffffffffffffffffff16610c096109a4565b73ffffffffffffffffffffffffffffffffffffffff1614610c5f576040517f08c379a0000000000000000000000000000000000000000000000000000000008152600401610c569061287c565b60405180910390fd5b610c6960076114af565b6000610c7560076114c5565b9050610c8184826114d3565b610c8b81846116a1565b8091505092915050565b610ca6610ca06110b4565b83611175565b610ce5576040517f08c379a0000000000000000000000000000000000000000000000000000000008152600401610cdc906128fc565b60405180910390fd5b610cf184848484611715565b50505050565b6060610d0282611048565b610d41576040517f08c379a0000000000000000000000000000000000000000000000000000000008152600401610d38906128bc565b60405180910390fd5b6000610d4b611771565b90506000815111610d6b5760405180602001604052806000815250610d96565b80610d7584611788565b604051602001610d86929190612634565b6040516020818303038152906040525b915050919050565b6000600560008473ffffffffffffffffffffffffffffffffffffffff1673ffffffffffffffffffffffffffffffffffffffff16815260200190815260200160002060008373ffffffffffffffffffffffffffffffffffffffff1673ffffffffffffffffffffffffffffffffffffffff16815260200190815260200160002060009054906101000a900460ff16905092915050565b610e3a6110b4565b73ffffffffffffffffffffffffffffffffffffffff16610e586109a4565b73ffffffffffffffffffffffffffffffffffffffff1614610eae576040517f08c379a0000000000000000000000000000000000000000000000000000000008152600401610ea59061287c565b60405180910390fd5b600073ffffffffffffffffffffffffffffffffffffffff168173ffffffffffffffffffffffffffffffffffffffff161415610f1e576040517f08c379a0000000000000000000000000000000000000000000000000000000008152600401610f159061271c565b60405180910390fd5b8073ffffffffffffffffffffffffffffffffffffffff16600660009054906101000a900473ffffffffffffffffffffffffffffffffffffffff1673ffffffffffffffffffffffffffffffffffffffff167f8be0079c531659141344cd1fd0a4f28419497f9722a3daafe3b4186f6b6457e060405160405180910390a380600660006101000a81548173ffffffffffffffffffffffffffffffffffffffff021916908373ffffffffffffffffffffffffffffffffffffffff16021790555050565b60007f01ffc9a7000000000000000000000000000000000000000000000000000000007bffffffffffffffffffffffffffffffffffffffffffffffffffffffff1916827bffffffffffffffffffffffffffffffffffffffffffffffffffffffff1916149050919050565b60008073ffffffffffffffffffffffffffffffffffffffff166002600084815260200190815260200160002060009054906101000a900473ffffffffffffffffffffffffffffffffffffffff1673ffffffffffffffffffffffffffffffffffffffff1614159050919050565b600033905090565b816004600083815260200190815260200160002060006101000a81548173ffffffffffffffffffffffffffffffffffffffff021916908373ffffffffffffffffffffffffffffffffffffffff160217905550808273ffffffffffffffffffffffffffffffffffffffff1661112f836106fd565b73ffffffffffffffffffffffffffffffffffffffff167f8c5be1e5ebec7d5bd14f71427d1e84f3dd0314c0f7b2291e5b200ac8c7c3b92560405160405180910390a45050565b600061118082611048565b6111bf576040517f08c379a00000000000000000000000000000000000000000000000000000000081526004016111b69061279c565b60405180910390fd5b60006111ca836106fd565b90508073ffffffffffffffffffffffffffffffffffffffff168473ffffffffffffffffffffffffffffffffffffffff16148061123957508373ffffffffffffffffffffffffffffffffffffffff16611221846104e0565b73ffffffffffffffffffffffffffffffffffffffff16145b8061124a57506112498185610d9e565b5b91505092915050565b8273ffffffffffffffffffffffffffffffffffffffff16611273826106fd565b73ffffffffffffffffffffffffffffffffffffffff16146112c9576040517f08c379a00000000000000000000000000000000000000000000000000000000081526004016112c09061289c565b60405180910390fd5b600073ffffffffffffffffffffffffffffffffffffffff168273ffffffffffffffffffffffffffffffffffffffff161415611339576040517f08c379a00000000000000000000000000000000000000000000000000000000081526004016113309061275c565b60405180910390fd5b611344838383611935565b61134f6000826110bc565b6001600360008573ffffffffffffffffffffffffffffffffffffffff1673ffffffffffffffffffffffffffffffffffffffff168152602001908152602001600020600082825461139f9190612a92565b925050819055506001600360008473ffffffffffffffffffffffffffffffffffffffff1673ffffffffffffffffffffffffffffffffffffffff16815260200190815260200160002060008282546113f69190612a0b565b92505081905550816002600083815260200190815260200160002060006101000a81548173ffffffffffffffffffffffffffffffffffffffff021916908373ffffffffffffffffffffffffffffffffffffffff160217905550808273ffffffffffffffffffffffffffffffffffffffff168473ffffffffffffffffffffffffffffffffffffffff167fddf252ad1be2c89b69c2b068fc378daa952ba7f163c4a11628f55a4df523b3ef60405160405180910390a4505050565b6001816000016000828254019250508190555050565b600081600001549050919050565b600073ffffffffffffffffffffffffffffffffffffffff168273ffffffffffffffffffffffffffffffffffffffff161415611543576040517f08c379a000000000000000000000000000000000000000000000000000000000815260040161153a9061281c565b60405180910390fd5b61154c81611048565b1561158c576040517f08c379a00000000000000000000000000000000000000000000000000000000081526004016115839061273c565b60405180910390fd5b61159860008383611935565b6001600360008473ffffffffffffffffffffffffffffffffffffffff1673ffffffffffffffffffffffffffffffffffffffff16815260200190815260200160002060008282546115e89190612a0b565b92505081905550816002600083815260200190815260200160002060006101000a81548173ffffffffffffffffffffffffffffffffffffffff021916908373ffffffffffffffffffffffffffffffffffffffff160217905550808273ffffffffffffffffffffffffffffffffffffffff16600073ffffffffffffffffffffffffffffffffffffffff167fddf252ad1be2c89b69c2b068fc378daa952ba7f163c4a11628f55a4df523b3ef60405160405180910390a45050565b6116aa82611048565b6116e9576040517f08c379a00000000000000000000000000000000000000000000000000000000081526004016116e09061285c565b60405180910390fd5b80600860008481526020019081526020016000209080519060200190611710929190611ae4565b505050565b611720848484611253565b61172c8484848461193a565b61176b576040517f08c379a0000000000000000000000000000000000000000000000000000000008152600401611762906126fc565b60405180910390fd5b50505050565b606060405180602001604052806000815250905090565b606060008214156117d0576040518060400160405280600181526020017f30000000000000000000000000000000000000000000000000000000000000008152509050611930565b600082905060005b600082146118025780806117eb90612bae565b915050600a826117fb9190612a61565b91506117d8565b60008167ffffffffffffffff811115611844577f4e487b7100000000000000000000000000000000000000000000000000000000600052604160045260246000fd5b6040519080825280601f01601f1916602001820160405280156118765781602001600182028036833780820191505090505b5090505b600085146119295760018261188f9190612a92565b9150600a8561189e9190612bf7565b60306118aa9190612a0b565b60f81b8183815181106118e6577f4e487b7100000000000000000000000000000000000000000000000000000000600052603260045260246000fd5b60200101907effffffffffffffffffffffffffffffffffffffffffffffffffffffffffffff1916908160001a905350600a856119229190612a61565b945061187a565b8093505050505b919050565b505050565b600061195b8473ffffffffffffffffffffffffffffffffffffffff16611ad1565b15611ac4578373ffffffffffffffffffffffffffffffffffffffff1663150b7a026119846110b4565b8786866040518563ffffffff1660e01b81526004016119a69493929190612673565b602060405180830381600087803b1580156119c057600080fd5b505af19250505080156119f157506040513d601f19601f820116820180604052508101906119ee9190611ee4565b60015b611a74573d8060008114611a21576040519150601f19603f3d011682016040523d82523d6000602084013e611a26565b606091505b50600081511415611a6c576040517f08c379a0000000000000000000000000000000000000000000000000000000008152600401611a63906126fc565b60405180910390fd5b805181602001fd5b63150b7a0260e01b7bffffffffffffffffffffffffffffffffffffffffffffffffffffffff1916817bffffffffffffffffffffffffffffffffffffffffffffffffffffffff191614915050611ac9565b600190505b949350505050565b600080823b905060008111915050919050565b828054611af090612b7c565b90600052602060002090601f016020900481019282611b125760008555611b59565b82601f10611b2b57805160ff1916838001178555611b59565b82800160010185558215611b59579182015b82811115611b58578251825591602001919060010190611b3d565b5b509050611b669190611b6a565b5090565b5b80821115611b83576000816000905550600101611b6b565b5090565b6000611b9a611b9584612968565b612937565b905082815260208101848484011115611bb257600080fd5b611bbd848285612b3a565b509392505050565b6000611bd8611bd384612998565b612937565b905082815260208101848484011115611bf057600080fd5b611bfb848285612b3a565b509392505050565b600081359050611c1281612cf5565b92915050565b600081359050611c2781612d0c565b92915050565b600081359050611c3c81612d23565b92915050565b600081519050611c5181612d23565b92915050565b600082601f830112611c6857600080fd5b8135611c78848260208601611b87565b91505092915050565b600082601f830112611c9257600080fd5b8135611ca2848260208601611bc5565b91505092915050565b600081359050611cba81612d3a565b92915050565b600060208284031215611cd257600080fd5b6000611ce084828501611c03565b91505092915050565b60008060408385031215611cfc57600080fd5b6000611d0a85828601611c03565b9250506020611d1b85828601611c03565b9150509250929050565b600080600060608486031215611d3a57600080fd5b6000611d4886828701611c03565b9350506020611d5986828701611c03565b9250506040611d6a86828701611cab565b9150509250925092565b60008060008060808587031215611d8a57600080fd5b6000611d9887828801611c03565b9450506020611da987828801611c03565b9350506040611dba87828801611cab565b925050606085013567ffffffffffffffff811115611dd757600080fd5b611de387828801611c57565b91505092959194509250565b60008060408385031215611e0257600080fd5b6000611e1085828601611c03565b9250506020611e2185828601611c18565b9150509250929050565b60008060408385031215611e3e57600080fd5b6000611e4c85828601611c03565b925050602083013567ffffffffffffffff811115611e6957600080fd5b611e7585828601611c81565b9150509250929050565b60008060408385031215611e9257600080fd5b6000611ea085828601611c03565b9250506020611eb185828601611cab565b9150509250929050565b600060208284031215611ecd57600080fd5b6000611edb84828501611c2d565b91505092915050565b600060208284031215611ef657600080fd5b6000611f0484828501611c42565b91505092915050565b600060208284031215611f1f57600080fd5b6000611f2d84828501611cab565b91505092915050565b611f3f81612ac6565b82525050565b611f4e81612ad8565b82525050565b6000611f5f826129c8565b611f6981856129de565b9350611f79818560208601612b49565b611f8281612ce4565b840191505092915050565b6000611f98826129d3565b611fa281856129ef565b9350611fb2818560208601612b49565b611fbb81612ce4565b840191505092915050565b6000611fd1826129d3565b611fdb8185612a00565b9350611feb818560208601612b49565b80840191505092915050565b60006120046032836129ef565b91507f4552433732313a207472616e7366657220746f206e6f6e20455243373231526560008301527f63656976657220696d706c656d656e74657200000000000000000000000000006020830152604082019050919050565b600061206a6026836129ef565b91507f4f776e61626c653a206e6577206f776e657220697320746865207a65726f206160008301527f64647265737300000000000000000000000000000000000000000000000000006020830152604082019050919050565b60006120d0601c836129ef565b91507f4552433732313a20746f6b656e20616c7265616479206d696e746564000000006000830152602082019050919050565b60006121106024836129ef565b91507f4552433732313a207472616e7366657220746f20746865207a65726f2061646460008301527f72657373000000000000000000000000000000000000000000000000000000006020830152604082019050919050565b60006121766019836129ef565b91507f4552433732313a20617070726f766520746f2063616c6c6572000000000000006000830152602082019050919050565b60006121b6602c836129ef565b91507f4552433732313a206f70657261746f7220717565727920666f72206e6f6e657860008301527f697374656e7420746f6b656e00000000000000000000000000000000000000006020830152604082019050919050565b600061221c6038836129ef565b91507f4552433732313a20617070726f76652063616c6c6572206973206e6f74206f7760008301527f6e6572206e6f7220617070726f76656420666f7220616c6c00000000000000006020830152604082019050919050565b6000612282602a836129ef565b91507f4552433732313a2062616c616e636520717565727920666f7220746865207a6560008301527f726f2061646472657373000000000000000000000000000000000000000000006020830152604082019050919050565b60006122e86029836129ef565b91507f4552433732313a206f776e657220717565727920666f72206e6f6e657869737460008301527f656e7420746f6b656e00000000000000000000000000000000000000000000006020830152604082019050919050565b600061234e6020836129ef565b91507f4552433732313a206d696e7420746f20746865207a65726f20616464726573736000830152602082019050919050565b600061238e602c836129ef565b91507f4552433732313a20617070726f76656420717565727920666f72206e6f6e657860008301527f697374656e7420746f6b656e00000000000000000000000000000000000000006020830152604082019050919050565b60006123f4602c836129ef565b91507f4552433732314d657461646174613a2055524920736574206f66206e6f6e657860008301527f697374656e7420746f6b656e00000000000000000000000000000000000000006020830152604082019050919050565b600061245a6020836129ef565b91507f4f776e61626c653a2063616c6c6572206973206e6f7420746865206f776e65726000830152602082019050919050565b600061249a6029836129ef565b91507f4552433732313a207472616e73666572206f6620746f6b656e2074686174206960008301527f73206e6f74206f776e00000000000000000000000000000000000000000000006020830152604082019050919050565b6000612500602f836129ef565b91507f4552433732314d657461646174613a2055524920717565727920666f72206e6f60008301527f6e6578697374656e7420746f6b656e00000000000000000000000000000000006020830152604082019050919050565b60006125666021836129ef565b91507f4552433732313a20617070726f76616c20746f2063757272656e74206f776e6560008301527f72000000000000000000000000000000000000000000000000000000000000006020830152604082019050919050565b60006125cc6031836129ef565b91507f4552433732313a207472616e736665722063616c6c6572206973206e6f74206f60008301527f776e6572206e6f7220617070726f7665640000000000000000000000000000006020830152604082019050919050565b61262e81612b30565b82525050565b60006126408285611fc6565b915061264c8284611fc6565b91508190509392505050565b600060208201905061266d6000830184611f36565b92915050565b60006080820190506126886000830187611f36565b6126956020830186611f36565b6126a26040830185612625565b81810360608301526126b48184611f54565b905095945050505050565b60006020820190506126d46000830184611f45565b92915050565b600060208201905081810360008301526126f48184611f8d565b905092915050565b6000602082019050818103600083015261271581611ff7565b9050919050565b600060208201905081810360008301526127358161205d565b9050919050565b60006020820190508181036000830152612755816120c3565b9050919050565b6000602082019050818103600083015261277581612103565b9050919050565b6000602082019050818103600083015261279581612169565b9050919050565b600060208201905081810360008301526127b5816121a9565b9050919050565b600060208201905081810360008301526127d58161220f565b9050919050565b600060208201905081810360008301526127f581612275565b9050919050565b60006020820190508181036000830152612815816122db565b9050919050565b6000602082019050818103600083015261283581612341565b9050919050565b6000602082019050818103600083015261285581612381565b9050919050565b60006020820190508181036000830152612875816123e7565b9050919050565b600060208201905081810360008301526128958161244d565b9050919050565b600060208201905081810360008301526128b58161248d565b9050919050565b600060208201905081810360008301526128d5816124f3565b9050919050565b600060208201905081810360008301526128f581612559565b9050919050565b60006020820190508181036000830152612915816125bf565b9050919050565b60006020820190506129316000830184612625565b92915050565b6000604051905081810181811067ffffffffffffffff8211171561295e5761295d612cb5565b5b8060405250919050565b600067ffffffffffffffff82111561298357612982612cb5565b5b601f19601f8301169050602081019050919050565b600067ffffffffffffffff8211156129b3576129b2612cb5565b5b601f19601f8301169050602081019050919050565b600081519050919050565b600081519050919050565b600082825260208201905092915050565b600082825260208201905092915050565b600081905092915050565b6000612a1682612b30565b9150612a2183612b30565b9250827fffffffffffffffffffffffffffffffffffffffffffffffffffffffffffffffff03821115612a5657612a55612c28565b5b828201905092915050565b6000612a6c82612b30565b9150612a7783612b30565b925082612a8757612a86612c57565b5b828204905092915050565b6000612a9d82612b30565b9150612aa883612b30565b925082821015612abb57612aba612c28565b5b828203905092915050565b6000612ad182612b10565b9050919050565b60008115159050919050565b60007fffffffff0000000000000000000000000000000000000000000000000000000082169050919050565b600073ffffffffffffffffffffffffffffffffffffffff82169050919050565b6000819050919050565b82818337600083830152505050565b60005b83811015612b67578082015181840152602081019050612b4c565b83811115612b76576000848401525b50505050565b60006002820490506001821680612b9457607f821691505b60208210811415612ba857612ba7612c86565b5b50919050565b6000612bb982612b30565b91507fffffffffffffffffffffffffffffffffffffffffffffffffffffffffffffffff821415612bec57612beb612c28565b5b600182019050919050565b6000612c0282612b30565b9150612c0d83612b30565b925082612c1d57612c1c612c57565b5b828206905092915050565b7f4e487b7100000000000000000000000000000000000000000000000000000000600052601160045260246000fd5b7f4e487b7100000000000000000000000000000000000000000000000000000000600052601260045260246000fd5b7f4e487b7100000000000000000000000000000000000000000000000000000000600052602260045260246000fd5b7f4e487b7100000000000000000000000000000000000000000000000000000000600052604160045260246000fd5b6000601f19601f8301169050919050565b612cfe81612ac6565b8114612d0957600080fd5b50565b612d1581612ad8565b8114612d2057600080fd5b50565b612d2c81612ae4565b8114612d3757600080fd5b50565b612d4381612b30565b8114612d4e57600080fd5b5056fea2646970667358221220e087e96263263d3b58730342a0a31d828ddd768a5d3cc1ffea54234d9c4b969164736f6c63430008000033",
  "linkReferences": {},
  "deployedLinkReferences": {}
}